{
  "_format": "hh-sol-artifact-1",
  "contractName": "iViewCoin",
  "sourceName": "contracts/iViewCoin.sol",
  "abi": [
    {
      "inputs": [],
      "stateMutability": "nonpayable",
      "type": "constructor"
    },
    {
      "anonymous": false,
      "inputs": [
        {
          "indexed": true,
          "internalType": "address",
          "name": "owner",
          "type": "address"
        },
        {
          "indexed": true,
          "internalType": "address",
          "name": "spender",
          "type": "address"
        },
        {
          "indexed": false,
          "internalType": "uint256",
          "name": "value",
          "type": "uint256"
        }
      ],
      "name": "Approval",
      "type": "event"
    },
    {
      "anonymous": false,
      "inputs": [
        {
          "indexed": true,
          "internalType": "address",
          "name": "previousOwner",
          "type": "address"
        },
        {
          "indexed": true,
          "internalType": "address",
          "name": "newOwner",
          "type": "address"
        }
      ],
      "name": "OwnershipTransferred",
      "type": "event"
    },
    {
      "anonymous": false,
      "inputs": [
        {
          "indexed": true,
          "internalType": "address",
          "name": "from",
          "type": "address"
        },
        {
          "indexed": true,
          "internalType": "address",
          "name": "to",
          "type": "address"
        },
        {
          "indexed": false,
          "internalType": "uint256",
          "name": "value",
          "type": "uint256"
        }
      ],
      "name": "Transfer",
      "type": "event"
    },
    {
      "inputs": [
        {
          "internalType": "address",
          "name": "owner",
          "type": "address"
        },
        {
          "internalType": "address",
          "name": "spender",
          "type": "address"
        }
      ],
      "name": "allowance",
      "outputs": [
        {
          "internalType": "uint256",
          "name": "",
          "type": "uint256"
        }
      ],
      "stateMutability": "view",
      "type": "function"
    },
    {
      "inputs": [
        {
          "internalType": "address",
          "name": "spender",
          "type": "address"
        },
        {
          "internalType": "uint256",
          "name": "amount",
          "type": "uint256"
        }
      ],
      "name": "approve",
      "outputs": [
        {
          "internalType": "bool",
          "name": "",
          "type": "bool"
        }
      ],
      "stateMutability": "nonpayable",
      "type": "function"
    },
    {
      "inputs": [
        {
          "internalType": "address",
          "name": "account",
          "type": "address"
        }
      ],
      "name": "balanceOf",
      "outputs": [
        {
          "internalType": "uint256",
          "name": "",
          "type": "uint256"
        }
      ],
      "stateMutability": "view",
      "type": "function"
    },
    {
      "inputs": [
        {
          "internalType": "uint256",
          "name": "amount",
          "type": "uint256"
        }
      ],
      "name": "buyCoin",
      "outputs": [],
      "stateMutability": "payable",
      "type": "function"
    },
    {
      "inputs": [],
      "name": "decimals",
      "outputs": [
        {
          "internalType": "uint8",
          "name": "",
          "type": "uint8"
        }
      ],
      "stateMutability": "view",
      "type": "function"
    },
    {
      "inputs": [
        {
          "internalType": "address",
          "name": "spender",
          "type": "address"
        },
        {
          "internalType": "uint256",
          "name": "subtractedValue",
          "type": "uint256"
        }
      ],
      "name": "decreaseAllowance",
      "outputs": [
        {
          "internalType": "bool",
          "name": "",
          "type": "bool"
        }
      ],
      "stateMutability": "nonpayable",
      "type": "function"
    },
    {
      "inputs": [],
      "name": "getPrice",
      "outputs": [
        {
          "internalType": "uint256",
          "name": "",
          "type": "uint256"
        }
      ],
      "stateMutability": "view",
      "type": "function"
    },
    {
      "inputs": [
        {
          "internalType": "address",
          "name": "spender",
          "type": "address"
        },
        {
          "internalType": "uint256",
          "name": "addedValue",
          "type": "uint256"
        }
      ],
      "name": "increaseAllowance",
      "outputs": [
        {
          "internalType": "bool",
          "name": "",
          "type": "bool"
        }
      ],
      "stateMutability": "nonpayable",
      "type": "function"
    },
    {
      "inputs": [
        {
          "internalType": "address",
          "name": "to",
          "type": "address"
        },
        {
          "internalType": "uint256",
          "name": "amount",
          "type": "uint256"
        }
      ],
      "name": "mint",
      "outputs": [],
      "stateMutability": "nonpayable",
      "type": "function"
    },
    {
      "inputs": [],
      "name": "name",
      "outputs": [
        {
          "internalType": "string",
          "name": "",
          "type": "string"
        }
      ],
      "stateMutability": "view",
      "type": "function"
    },
    {
      "inputs": [],
      "name": "owner",
      "outputs": [
        {
          "internalType": "address",
          "name": "",
          "type": "address"
        }
      ],
      "stateMutability": "view",
      "type": "function"
    },
    {
      "inputs": [],
      "name": "renounceOwnership",
      "outputs": [],
      "stateMutability": "nonpayable",
      "type": "function"
    },
    {
      "inputs": [],
      "name": "symbol",
      "outputs": [
        {
          "internalType": "string",
          "name": "",
          "type": "string"
        }
      ],
      "stateMutability": "view",
      "type": "function"
    },
    {
      "inputs": [],
      "name": "totalSupply",
      "outputs": [
        {
          "internalType": "uint256",
          "name": "",
          "type": "uint256"
        }
      ],
      "stateMutability": "view",
      "type": "function"
    },
    {
      "inputs": [
        {
          "internalType": "address",
          "name": "to",
          "type": "address"
        },
        {
          "internalType": "uint256",
          "name": "amount",
          "type": "uint256"
        }
      ],
      "name": "transfer",
      "outputs": [
        {
          "internalType": "bool",
          "name": "",
          "type": "bool"
        }
      ],
      "stateMutability": "nonpayable",
      "type": "function"
    },
    {
      "inputs": [
        {
          "internalType": "address",
          "name": "from",
          "type": "address"
        },
        {
          "internalType": "address",
          "name": "to",
          "type": "address"
        },
        {
          "internalType": "uint256",
          "name": "amount",
          "type": "uint256"
        }
      ],
      "name": "transferFrom",
      "outputs": [
        {
          "internalType": "bool",
          "name": "",
          "type": "bool"
        }
      ],
      "stateMutability": "nonpayable",
      "type": "function"
    },
    {
      "inputs": [
        {
          "internalType": "address",
          "name": "newOwner",
          "type": "address"
        }
      ],
      "name": "transferOwnership",
      "outputs": [],
      "stateMutability": "nonpayable",
      "type": "function"
    },
    {
      "inputs": [
        {
          "internalType": "uint256",
          "name": "newPrice",
          "type": "uint256"
        }
      ],
      "name": "updatePrice",
      "outputs": [],
      "stateMutability": "nonpayable",
      "type": "function"
    },
    {
      "inputs": [],
      "name": "withDrawAll",
      "outputs": [],
      "stateMutability": "nonpayable",
      "type": "function"
    }
  ],
  "bytecode": "0x6080604052683635c9adc5dea0000060065560016007553480156200002357600080fd5b506040518060400160405280600981526020017f6956696577436f696e00000000000000000000000000000000000000000000008152506040518060400160405280600381526020017f49564300000000000000000000000000000000000000000000000000000000008152508160039081620000a19190620005af565b508060049081620000b39190620005af565b505050620000d6620000ca620000f060201b60201c565b620000f860201b60201c565b620000ea30600654620001be60201b60201c565b620007b1565b600033905090565b6000600560009054906101000a900473ffffffffffffffffffffffffffffffffffffffff16905081600560006101000a81548173ffffffffffffffffffffffffffffffffffffffff021916908373ffffffffffffffffffffffffffffffffffffffff1602179055508173ffffffffffffffffffffffffffffffffffffffff168173ffffffffffffffffffffffffffffffffffffffff167f8be0079c531659141344cd1fd0a4f28419497f9722a3daafe3b4186f6b6457e060405160405180910390a35050565b600073ffffffffffffffffffffffffffffffffffffffff168273ffffffffffffffffffffffffffffffffffffffff160362000230576040517f08c379a00000000000000000000000000000000000000000000000000000000081526004016200022790620006f7565b60405180910390fd5b62000244600083836200032b60201b60201c565b806002600082825462000258919062000748565b92505081905550806000808473ffffffffffffffffffffffffffffffffffffffff1673ffffffffffffffffffffffffffffffffffffffff168152602001908152602001600020600082825401925050819055508173ffffffffffffffffffffffffffffffffffffffff16600073ffffffffffffffffffffffffffffffffffffffff167fddf252ad1be2c89b69c2b068fc378daa952ba7f163c4a11628f55a4df523b3ef836040516200030b919062000794565b60405180910390a362000327600083836200033060201b60201c565b5050565b505050565b505050565b600081519050919050565b7f4e487b7100000000000000000000000000000000000000000000000000000000600052604160045260246000fd5b7f4e487b7100000000000000000000000000000000000000000000000000000000600052602260045260246000fd5b60006002820490506001821680620003b757607f821691505b602082108103620003cd57620003cc6200036f565b5b50919050565b60008190508160005260206000209050919050565b60006020601f8301049050919050565b600082821b905092915050565b600060088302620004377fffffffffffffffffffffffffffffffffffffffffffffffffffffffffffffffff82620003f8565b620004438683620003f8565b95508019841693508086168417925050509392505050565b6000819050919050565b6000819050919050565b6000620004906200048a62000484846200045b565b62000465565b6200045b565b9050919050565b6000819050919050565b620004ac836200046f565b620004c4620004bb8262000497565b84845462000405565b825550505050565b600090565b620004db620004cc565b620004e8818484620004a1565b505050565b5b81811015620005105762000504600082620004d1565b600181019050620004ee565b5050565b601f8211156200055f576200052981620003d3565b6200053484620003e8565b8101602085101562000544578190505b6200055c6200055385620003e8565b830182620004ed565b50505b505050565b600082821c905092915050565b6000620005846000198460080262000564565b1980831691505092915050565b60006200059f838362000571565b9150826002028217905092915050565b620005ba8262000335565b67ffffffffffffffff811115620005d657620005d562000340565b5b620005e282546200039e565b620005ef82828562000514565b600060209050601f83116001811462000627576000841562000612578287015190505b6200061e858262000591565b8655506200068e565b601f1984166200063786620003d3565b60005b8281101562000661578489015182556001820191506020850194506020810190506200063a565b868310156200068157848901516200067d601f89168262000571565b8355505b6001600288020188555050505b505050505050565b600082825260208201905092915050565b7f45524332303a206d696e7420746f20746865207a65726f206164647265737300600082015250565b6000620006df601f8362000696565b9150620006ec82620006a7565b602082019050919050565b600060208201905081810360008301526200071281620006d0565b9050919050565b7f4e487b7100000000000000000000000000000000000000000000000000000000600052601160045260246000fd5b600062000755826200045b565b915062000762836200045b565b92508282019050808211156200077d576200077c62000719565b5b92915050565b6200078e816200045b565b82525050565b6000602082019050620007ab600083018462000783565b92915050565b611e8e80620007c16000396000f3fe6080604052600436106101145760003560e01c806387792574116100a0578063991671e211610064578063991671e214610394578063a457c2d7146103ab578063a9059cbb146103e8578063dd62ed3e14610425578063f2fde38b1461046257610114565b806387792574146102ce5780638d6cc56d146102ea5780638da5cb5b1461031357806395d89b411461033e57806398d5fdca1461036957610114565b8063313ce567116100e7578063313ce567146101e9578063395093511461021457806340c10f191461025157806370a082311461027a578063715018a6146102b757610114565b806306fdde0314610119578063095ea7b31461014457806318160ddd1461018157806323b872dd146101ac575b600080fd5b34801561012557600080fd5b5061012e61048b565b60405161013b9190611294565b60405180910390f35b34801561015057600080fd5b5061016b6004803603810190610166919061134f565b61051d565b60405161017891906113aa565b60405180910390f35b34801561018d57600080fd5b50610196610540565b6040516101a391906113d4565b60405180910390f35b3480156101b857600080fd5b506101d360048036038101906101ce91906113ef565b61054a565b6040516101e091906113aa565b60405180910390f35b3480156101f557600080fd5b506101fe610579565b60405161020b919061145e565b60405180910390f35b34801561022057600080fd5b5061023b6004803603810190610236919061134f565b610582565b60405161024891906113aa565b60405180910390f35b34801561025d57600080fd5b506102786004803603810190610273919061134f565b6105b9565b005b34801561028657600080fd5b506102a1600480360381019061029c9190611479565b6105cf565b6040516102ae91906113d4565b60405180910390f35b3480156102c357600080fd5b506102cc610617565b005b6102e860048036038101906102e391906114a6565b61062b565b005b3480156102f657600080fd5b50610311600480360381019061030c91906114a6565b610717565b005b34801561031f57600080fd5b5061032861076c565b60405161033591906114e2565b60405180910390f35b34801561034a57600080fd5b50610353610796565b6040516103609190611294565b60405180910390f35b34801561037557600080fd5b5061037e610828565b60405161038b91906113d4565b60405180910390f35b3480156103a057600080fd5b506103a9610832565b005b3480156103b757600080fd5b506103d260048036038101906103cd919061134f565b6108e9565b6040516103df91906113aa565b60405180910390f35b3480156103f457600080fd5b5061040f600480360381019061040a919061134f565b610960565b60405161041c91906113aa565b60405180910390f35b34801561043157600080fd5b5061044c600480360381019061044791906114fd565b610983565b60405161045991906113d4565b60405180910390f35b34801561046e57600080fd5b5061048960048036038101906104849190611479565b610a0a565b005b60606003805461049a9061156c565b80601f01602080910402602001604051908101604052809291908181526020018280546104c69061156c565b80156105135780601f106104e857610100808354040283529160200191610513565b820191906000526020600020905b8154815290600101906020018083116104f657829003601f168201915b5050505050905090565b600080610528610a8d565b9050610535818585610a95565b600191505092915050565b6000600254905090565b600080610555610a8d565b9050610562858285610c5e565b61056d858585610cea565b60019150509392505050565b60006012905090565b60008061058d610a8d565b90506105ae81858561059f8589610983565b6105a991906115cc565b610a95565b600191505092915050565b6105c1610f60565b6105cb8282610fde565b5050565b60008060008373ffffffffffffffffffffffffffffffffffffffff1673ffffffffffffffffffffffffffffffffffffffff168152602001908152602001600020549050919050565b61061f610f60565b6106296000611134565b565b6000811161066e576040517f08c379a00000000000000000000000000000000000000000000000000000000081526004016106659061164c565b60405180910390fd5b80610678306105cf565b10156106b9576040517f08c379a00000000000000000000000000000000000000000000000000000000081526004016106b0906116b8565b60405180910390fd5b806007546106c791906116d8565b341015610709576040517f08c379a00000000000000000000000000000000000000000000000000000000081526004016107009061178c565b60405180910390fd5b610714303383610cea565b50565b61071f610f60565b60008111610762576040517f08c379a00000000000000000000000000000000000000000000000000000000081526004016107599061181e565b60405180910390fd5b8060078190555050565b6000600560009054906101000a900473ffffffffffffffffffffffffffffffffffffffff16905090565b6060600480546107a59061156c565b80601f01602080910402602001604051908101604052809291908181526020018280546107d19061156c565b801561081e5780601f106107f35761010080835404028352916020019161081e565b820191906000526020600020905b81548152906001019060200180831161080157829003601f168201915b5050505050905090565b6000600754905090565b61083a610f60565b60003373ffffffffffffffffffffffffffffffffffffffff16476040516108609061186f565b60006040518083038185875af1925050503d806000811461089d576040519150601f19603f3d011682016040523d82523d6000602084013e6108a2565b606091505b50509050806108e6576040517f08c379a00000000000000000000000000000000000000000000000000000000081526004016108dd906118f6565b60405180910390fd5b50565b6000806108f4610a8d565b905060006109028286610983565b905083811015610947576040517f08c379a000000000000000000000000000000000000000000000000000000000815260040161093e90611988565b60405180910390fd5b6109548286868403610a95565b60019250505092915050565b60008061096b610a8d565b9050610978818585610cea565b600191505092915050565b6000600160008473ffffffffffffffffffffffffffffffffffffffff1673ffffffffffffffffffffffffffffffffffffffff16815260200190815260200160002060008373ffffffffffffffffffffffffffffffffffffffff1673ffffffffffffffffffffffffffffffffffffffff16815260200190815260200160002054905092915050565b610a12610f60565b600073ffffffffffffffffffffffffffffffffffffffff168173ffffffffffffffffffffffffffffffffffffffff1603610a81576040517f08c379a0000000000000000000000000000000000000000000000000000000008152600401610a7890611a1a565b60405180910390fd5b610a8a81611134565b50565b600033905090565b600073ffffffffffffffffffffffffffffffffffffffff168373ffffffffffffffffffffffffffffffffffffffff1603610b04576040517f08c379a0000000000000000000000000000000000000000000000000000000008152600401610afb90611aac565b60405180910390fd5b600073ffffffffffffffffffffffffffffffffffffffff168273ffffffffffffffffffffffffffffffffffffffff1603610b73576040517f08c379a0000000000000000000000000000000000000000000000000000000008152600401610b6a90611b3e565b60405180910390fd5b80600160008573ffffffffffffffffffffffffffffffffffffffff1673ffffffffffffffffffffffffffffffffffffffff16815260200190815260200160002060008473ffffffffffffffffffffffffffffffffffffffff1673ffffffffffffffffffffffffffffffffffffffff168152602001908152602001600020819055508173ffffffffffffffffffffffffffffffffffffffff168373ffffffffffffffffffffffffffffffffffffffff167f8c5be1e5ebec7d5bd14f71427d1e84f3dd0314c0f7b2291e5b200ac8c7c3b92583604051610c5191906113d4565b60405180910390a3505050565b6000610c6a8484610983565b90507fffffffffffffffffffffffffffffffffffffffffffffffffffffffffffffffff8114610ce45781811015610cd6576040517f08c379a0000000000000000000000000000000000000000000000000000000008152600401610ccd90611baa565b60405180910390fd5b610ce38484848403610a95565b5b50505050565b600073ffffffffffffffffffffffffffffffffffffffff168373ffffffffffffffffffffffffffffffffffffffff1603610d59576040517f08c379a0000000000000000000000000000000000000000000000000000000008152600401610d5090611c3c565b60405180910390fd5b600073ffffffffffffffffffffffffffffffffffffffff168273ffffffffffffffffffffffffffffffffffffffff1603610dc8576040517f08c379a0000000000000000000000000000000000000000000000000000000008152600401610dbf90611cce565b60405180910390fd5b610dd38383836111fa565b60008060008573ffffffffffffffffffffffffffffffffffffffff1673ffffffffffffffffffffffffffffffffffffffff16815260200190815260200160002054905081811015610e59576040517f08c379a0000000000000000000000000000000000000000000000000000000008152600401610e5090611d60565b60405180910390fd5b8181036000808673ffffffffffffffffffffffffffffffffffffffff1673ffffffffffffffffffffffffffffffffffffffff16815260200190815260200160002081905550816000808573ffffffffffffffffffffffffffffffffffffffff1673ffffffffffffffffffffffffffffffffffffffff168152602001908152602001600020600082825401925050819055508273ffffffffffffffffffffffffffffffffffffffff168473ffffffffffffffffffffffffffffffffffffffff167fddf252ad1be2c89b69c2b068fc378daa952ba7f163c4a11628f55a4df523b3ef84604051610f4791906113d4565b60405180910390a3610f5a8484846111ff565b50505050565b610f68610a8d565b73ffffffffffffffffffffffffffffffffffffffff16610f8661076c565b73ffffffffffffffffffffffffffffffffffffffff1614610fdc576040517f08c379a0000000000000000000000000000000000000000000000000000000008152600401610fd390611dcc565b60405180910390fd5b565b600073ffffffffffffffffffffffffffffffffffffffff168273ffffffffffffffffffffffffffffffffffffffff160361104d576040517f08c379a000000000000000000000000000000000000000000000000000000000815260040161104490611e38565b60405180910390fd5b611059600083836111fa565b806002600082825461106b91906115cc565b92505081905550806000808473ffffffffffffffffffffffffffffffffffffffff1673ffffffffffffffffffffffffffffffffffffffff168152602001908152602001600020600082825401925050819055508173ffffffffffffffffffffffffffffffffffffffff16600073ffffffffffffffffffffffffffffffffffffffff167fddf252ad1be2c89b69c2b068fc378daa952ba7f163c4a11628f55a4df523b3ef8360405161111c91906113d4565b60405180910390a3611130600083836111ff565b5050565b6000600560009054906101000a900473ffffffffffffffffffffffffffffffffffffffff16905081600560006101000a81548173ffffffffffffffffffffffffffffffffffffffff021916908373ffffffffffffffffffffffffffffffffffffffff1602179055508173ffffffffffffffffffffffffffffffffffffffff168173ffffffffffffffffffffffffffffffffffffffff167f8be0079c531659141344cd1fd0a4f28419497f9722a3daafe3b4186f6b6457e060405160405180910390a35050565b505050565b505050565b600081519050919050565b600082825260208201905092915050565b60005b8381101561123e578082015181840152602081019050611223565b60008484015250505050565b6000601f19601f8301169050919050565b600061126682611204565b611270818561120f565b9350611280818560208601611220565b6112898161124a565b840191505092915050565b600060208201905081810360008301526112ae818461125b565b905092915050565b600080fd5b600073ffffffffffffffffffffffffffffffffffffffff82169050919050565b60006112e6826112bb565b9050919050565b6112f6816112db565b811461130157600080fd5b50565b600081359050611313816112ed565b92915050565b6000819050919050565b61132c81611319565b811461133757600080fd5b50565b60008135905061134981611323565b92915050565b60008060408385031215611366576113656112b6565b5b600061137485828601611304565b92505060206113858582860161133a565b9150509250929050565b60008115159050919050565b6113a48161138f565b82525050565b60006020820190506113bf600083018461139b565b92915050565b6113ce81611319565b82525050565b60006020820190506113e960008301846113c5565b92915050565b600080600060608486031215611408576114076112b6565b5b600061141686828701611304565b935050602061142786828701611304565b92505060406114388682870161133a565b9150509250925092565b600060ff82169050919050565b61145881611442565b82525050565b6000602082019050611473600083018461144f565b92915050565b60006020828403121561148f5761148e6112b6565b5b600061149d84828501611304565b91505092915050565b6000602082840312156114bc576114bb6112b6565b5b60006114ca8482850161133a565b91505092915050565b6114dc816112db565b82525050565b60006020820190506114f760008301846114d3565b92915050565b60008060408385031215611514576115136112b6565b5b600061152285828601611304565b925050602061153385828601611304565b9150509250929050565b7f4e487b7100000000000000000000000000000000000000000000000000000000600052602260045260246000fd5b6000600282049050600182168061158457607f821691505b6020821081036115975761159661153d565b5b50919050565b7f4e487b7100000000000000000000000000000000000000000000000000000000600052601160045260246000fd5b60006115d782611319565b91506115e283611319565b92508282019050808211156115fa576115f961159d565b5b92915050565b7f416d6f756e74206d75737420626520677261746572207468616e20302e000000600082015250565b6000611636601d8361120f565b915061164182611600565b602082019050919050565b6000602082019050818103600083015261166581611629565b9050919050565b7f416c6c20737570706c69656420636f696e732061726520736f6c642e00000000600082015250565b60006116a2601c8361120f565b91506116ad8261166c565b602082019050919050565b600060208201905081810360008301526116d181611695565b9050919050565b60006116e382611319565b91506116ee83611319565b92508282026116fc81611319565b915082820484148315176117135761171261159d565b5b5092915050565b7f50617920636f727265637420616d6f756e7420746f206765742072657175697260008201527f656420636f696e732e0000000000000000000000000000000000000000000000602082015250565b600061177660298361120f565b91506117818261171a565b604082019050919050565b600060208201905081810360008301526117a581611769565b9050919050565b7f4e6577207072696365206f66207468697320636f696e206d757374206265206760008201527f7261746572207468616e20302e00000000000000000000000000000000000000602082015250565b6000611808602d8361120f565b9150611813826117ac565b604082019050919050565b60006020820190508181036000830152611837816117fb565b9050919050565b600081905092915050565b50565b600061185960008361183e565b915061186482611849565b600082019050919050565b600061187a8261184c565b9150819050919050565b7f4661696c656420746f207769746864726177206d6f6e65792066726f6d20636f60008201527f696e20636f6e74726163742e0000000000000000000000000000000000000000602082015250565b60006118e0602c8361120f565b91506118eb82611884565b604082019050919050565b6000602082019050818103600083015261190f816118d3565b9050919050565b7f45524332303a2064656372656173656420616c6c6f77616e63652062656c6f7760008201527f207a65726f000000000000000000000000000000000000000000000000000000602082015250565b600061197260258361120f565b915061197d82611916565b604082019050919050565b600060208201905081810360008301526119a181611965565b9050919050565b7f4f776e61626c653a206e6577206f776e657220697320746865207a65726f206160008201527f6464726573730000000000000000000000000000000000000000000000000000602082015250565b6000611a0460268361120f565b9150611a0f826119a8565b604082019050919050565b60006020820190508181036000830152611a33816119f7565b9050919050565b7f45524332303a20617070726f76652066726f6d20746865207a65726f2061646460008201527f7265737300000000000000000000000000000000000000000000000000000000602082015250565b6000611a9660248361120f565b9150611aa182611a3a565b604082019050919050565b60006020820190508181036000830152611ac581611a89565b9050919050565b7f45524332303a20617070726f766520746f20746865207a65726f20616464726560008201527f7373000000000000000000000000000000000000000000000000000000000000602082015250565b6000611b2860228361120f565b9150611b3382611acc565b604082019050919050565b60006020820190508181036000830152611b5781611b1b565b9050919050565b7f45524332303a20696e73756666696369656e7420616c6c6f77616e6365000000600082015250565b6000611b94601d8361120f565b9150611b9f82611b5e565b602082019050919050565b60006020820190508181036000830152611bc381611b87565b9050919050565b7f45524332303a207472616e736665722066726f6d20746865207a65726f20616460008201527f6472657373000000000000000000000000000000000000000000000000000000602082015250565b6000611c2660258361120f565b9150611c3182611bca565b604082019050919050565b60006020820190508181036000830152611c5581611c19565b9050919050565b7f45524332303a207472616e7366657220746f20746865207a65726f206164647260008201527f6573730000000000000000000000000000000000000000000000000000000000602082015250565b6000611cb860238361120f565b9150611cc382611c5c565b604082019050919050565b60006020820190508181036000830152611ce781611cab565b9050919050565b7f45524332303a207472616e7366657220616d6f756e742065786365656473206260008201527f616c616e63650000000000000000000000000000000000000000000000000000602082015250565b6000611d4a60268361120f565b9150611d5582611cee565b604082019050919050565b60006020820190508181036000830152611d7981611d3d565b9050919050565b7f4f776e61626c653a2063616c6c6572206973206e6f7420746865206f776e6572600082015250565b6000611db660208361120f565b9150611dc182611d80565b602082019050919050565b60006020820190508181036000830152611de581611da9565b9050919050565b7f45524332303a206d696e7420746f20746865207a65726f206164647265737300600082015250565b6000611e22601f8361120f565b9150611e2d82611dec565b602082019050919050565b60006020820190508181036000830152611e5181611e15565b905091905056fea26469706673582212201b337947889deb73c573f4d6a6d16fd43122abeec38a44682948d5a4454fc11764736f6c63430008120033",
  "linkReferences": {},
  "deployedLinkReferences": {}
}