{
  "_format": "hh-sol-artifact-1",
  "contractName": "iViewNFT",
  "sourceName": "contracts/iViewNFT.sol",
  "abi": [
    {
      "inputs": [
        {
          "internalType": "address",
          "name": "_tokenAddress",
          "type": "address"
        }
      ],
      "stateMutability": "nonpayable",
      "type": "constructor"
    },
    {
      "anonymous": false,
      "inputs": [
        {
          "indexed": true,
          "internalType": "address",
          "name": "owner",
          "type": "address"
        },
        {
          "indexed": true,
          "internalType": "address",
          "name": "approved",
          "type": "address"
        },
        {
          "indexed": true,
          "internalType": "uint256",
          "name": "tokenId",
          "type": "uint256"
        }
      ],
      "name": "Approval",
      "type": "event"
    },
    {
      "anonymous": false,
      "inputs": [
        {
          "indexed": true,
          "internalType": "address",
          "name": "owner",
          "type": "address"
        },
        {
          "indexed": true,
          "internalType": "address",
          "name": "operator",
          "type": "address"
        },
        {
          "indexed": false,
          "internalType": "bool",
          "name": "approved",
          "type": "bool"
        }
      ],
      "name": "ApprovalForAll",
      "type": "event"
    },
    {
      "anonymous": false,
      "inputs": [
        {
          "indexed": true,
          "internalType": "uint256",
          "name": "_id",
          "type": "uint256"
        }
      ],
      "name": "NFTMinted",
      "type": "event"
    },
    {
      "anonymous": false,
      "inputs": [
        {
          "indexed": true,
          "internalType": "uint256",
          "name": "_id",
          "type": "uint256"
        },
        {
          "indexed": false,
          "internalType": "address",
          "name": "_from",
          "type": "address"
        },
        {
          "indexed": false,
          "internalType": "address",
          "name": "_to",
          "type": "address"
        },
        {
          "indexed": false,
          "internalType": "uint256",
          "name": "_royalty",
          "type": "uint256"
        },
        {
          "indexed": false,
          "internalType": "uint256",
          "name": "_amount",
          "type": "uint256"
        }
      ],
      "name": "NFTSold",
      "type": "event"
    },
    {
      "anonymous": false,
      "inputs": [
        {
          "indexed": true,
          "internalType": "address",
          "name": "previousOwner",
          "type": "address"
        },
        {
          "indexed": true,
          "internalType": "address",
          "name": "newOwner",
          "type": "address"
        }
      ],
      "name": "OwnershipTransferred",
      "type": "event"
    },
    {
      "anonymous": false,
      "inputs": [
        {
          "indexed": true,
          "internalType": "address",
          "name": "from",
          "type": "address"
        },
        {
          "indexed": true,
          "internalType": "address",
          "name": "to",
          "type": "address"
        },
        {
          "indexed": true,
          "internalType": "uint256",
          "name": "tokenId",
          "type": "uint256"
        }
      ],
      "name": "Transfer",
      "type": "event"
    },
    {
      "inputs": [],
      "name": "GetCoinAllowance",
      "outputs": [
        {
          "internalType": "uint256",
          "name": "",
          "type": "uint256"
        }
      ],
      "stateMutability": "view",
      "type": "function"
    },
    {
      "inputs": [],
      "name": "GetContractCoinBalance",
      "outputs": [
        {
          "internalType": "uint256",
          "name": "",
          "type": "uint256"
        }
      ],
      "stateMutability": "view",
      "type": "function"
    },
    {
      "inputs": [
        {
          "internalType": "address",
          "name": "to",
          "type": "address"
        },
        {
          "internalType": "uint256",
          "name": "tokenId",
          "type": "uint256"
        }
      ],
      "name": "approve",
      "outputs": [],
      "stateMutability": "nonpayable",
      "type": "function"
    },
    {
      "inputs": [
        {
          "internalType": "address",
          "name": "to",
          "type": "address"
        }
      ],
      "name": "approveMintingNFT",
      "outputs": [],
      "stateMutability": "nonpayable",
      "type": "function"
    },
    {
      "inputs": [
        {
          "internalType": "address",
          "name": "owner",
          "type": "address"
        }
      ],
      "name": "balanceOf",
      "outputs": [
        {
          "internalType": "uint256",
          "name": "",
          "type": "uint256"
        }
      ],
      "stateMutability": "view",
      "type": "function"
    },
    {
      "inputs": [
        {
          "internalType": "uint256",
          "name": "tokenId",
          "type": "uint256"
        }
      ],
      "name": "buyNFT",
      "outputs": [],
      "stateMutability": "nonpayable",
      "type": "function"
    },
    {
      "inputs": [
        {
          "internalType": "address",
          "name": "to",
          "type": "address"
        }
      ],
      "name": "declineMintingNFT",
      "outputs": [],
      "stateMutability": "nonpayable",
      "type": "function"
    },
    {
      "inputs": [
        {
          "internalType": "uint256",
          "name": "tokenId",
          "type": "uint256"
        }
      ],
      "name": "disableNFTSale",
      "outputs": [],
      "stateMutability": "nonpayable",
      "type": "function"
    },
    {
      "inputs": [
        {
          "internalType": "uint256",
          "name": "tokenId",
          "type": "uint256"
        }
      ],
      "name": "enableNFTSale",
      "outputs": [],
      "stateMutability": "nonpayable",
      "type": "function"
    },
    {
      "inputs": [
        {
          "internalType": "uint256",
          "name": "tokenId",
          "type": "uint256"
        }
      ],
      "name": "getApproved",
      "outputs": [
        {
          "internalType": "address",
          "name": "",
          "type": "address"
        }
      ],
      "stateMutability": "view",
      "type": "function"
    },
    {
      "inputs": [
        {
          "internalType": "uint256",
          "name": "tokenId",
          "type": "uint256"
        }
      ],
      "name": "getNFTPrice",
      "outputs": [
        {
          "internalType": "uint256",
          "name": "",
          "type": "uint256"
        }
      ],
      "stateMutability": "view",
      "type": "function"
    },
    {
      "inputs": [
        {
          "internalType": "uint256",
          "name": "tokenId",
          "type": "uint256"
        }
      ],
      "name": "getNFTSale",
      "outputs": [
        {
          "internalType": "bool",
          "name": "",
          "type": "bool"
        }
      ],
      "stateMutability": "view",
      "type": "function"
    },
    {
      "inputs": [],
      "name": "getRoyaltyPercentage",
      "outputs": [
        {
          "internalType": "uint256",
          "name": "",
          "type": "uint256"
        }
      ],
      "stateMutability": "view",
      "type": "function"
    },
    {
      "inputs": [
        {
          "internalType": "address",
          "name": "owner",
          "type": "address"
        },
        {
          "internalType": "address",
          "name": "operator",
          "type": "address"
        }
      ],
      "name": "isApprovedForAll",
      "outputs": [
        {
          "internalType": "bool",
          "name": "",
          "type": "bool"
        }
      ],
      "stateMutability": "view",
      "type": "function"
    },
    {
      "inputs": [],
      "name": "isMintingAllowed",
      "outputs": [
        {
          "internalType": "bool",
          "name": "",
          "type": "bool"
        }
      ],
      "stateMutability": "view",
      "type": "function"
    },
    {
      "inputs": [
        {
          "internalType": "string",
          "name": "uri",
          "type": "string"
        },
        {
          "internalType": "uint256",
          "name": "price",
          "type": "uint256"
        }
      ],
      "name": "mintNFT",
      "outputs": [],
      "stateMutability": "nonpayable",
      "type": "function"
    },
    {
      "inputs": [],
      "name": "name",
      "outputs": [
        {
          "internalType": "string",
          "name": "",
          "type": "string"
        }
      ],
      "stateMutability": "view",
      "type": "function"
    },
    {
      "inputs": [
        {
          "internalType": "uint256",
          "name": "",
          "type": "uint256"
        }
      ],
      "name": "nftForSale",
      "outputs": [
        {
          "internalType": "bool",
          "name": "",
          "type": "bool"
        }
      ],
      "stateMutability": "view",
      "type": "function"
    },
    {
      "inputs": [],
      "name": "owner",
      "outputs": [
        {
          "internalType": "address",
          "name": "",
          "type": "address"
        }
      ],
      "stateMutability": "view",
      "type": "function"
    },
    {
      "inputs": [
        {
          "internalType": "uint256",
          "name": "tokenId",
          "type": "uint256"
        }
      ],
      "name": "ownerOf",
      "outputs": [
        {
          "internalType": "address",
          "name": "",
          "type": "address"
        }
      ],
      "stateMutability": "view",
      "type": "function"
    },
    {
      "inputs": [],
      "name": "renounceOwnership",
      "outputs": [],
      "stateMutability": "nonpayable",
      "type": "function"
    },
    {
      "inputs": [],
      "name": "requestMintingNFT",
      "outputs": [],
      "stateMutability": "nonpayable",
      "type": "function"
    },
    {
      "inputs": [
        {
          "internalType": "address",
          "name": "from",
          "type": "address"
        },
        {
          "internalType": "address",
          "name": "to",
          "type": "address"
        },
        {
          "internalType": "uint256",
          "name": "tokenId",
          "type": "uint256"
        }
      ],
      "name": "safeTransferFrom",
      "outputs": [],
      "stateMutability": "nonpayable",
      "type": "function"
    },
    {
      "inputs": [
        {
          "internalType": "address",
          "name": "from",
          "type": "address"
        },
        {
          "internalType": "address",
          "name": "to",
          "type": "address"
        },
        {
          "internalType": "uint256",
          "name": "tokenId",
          "type": "uint256"
        },
        {
          "internalType": "bytes",
          "name": "data",
          "type": "bytes"
        }
      ],
      "name": "safeTransferFrom",
      "outputs": [],
      "stateMutability": "nonpayable",
      "type": "function"
    },
    {
      "inputs": [
        {
          "internalType": "address",
          "name": "operator",
          "type": "address"
        },
        {
          "internalType": "bool",
          "name": "approved",
          "type": "bool"
        }
      ],
      "name": "setApprovalForAll",
      "outputs": [],
      "stateMutability": "nonpayable",
      "type": "function"
    },
    {
      "inputs": [
        {
          "internalType": "bytes4",
          "name": "interfaceId",
          "type": "bytes4"
        }
      ],
      "name": "supportsInterface",
      "outputs": [
        {
          "internalType": "bool",
          "name": "",
          "type": "bool"
        }
      ],
      "stateMutability": "view",
      "type": "function"
    },
    {
      "inputs": [],
      "name": "symbol",
      "outputs": [
        {
          "internalType": "string",
          "name": "",
          "type": "string"
        }
      ],
      "stateMutability": "view",
      "type": "function"
    },
    {
      "inputs": [
        {
          "internalType": "uint256",
          "name": "tokenId",
          "type": "uint256"
        }
      ],
      "name": "tokenURI",
      "outputs": [
        {
          "internalType": "string",
          "name": "",
          "type": "string"
        }
      ],
      "stateMutability": "view",
      "type": "function"
    },
    {
      "inputs": [
        {
          "internalType": "address",
          "name": "from",
          "type": "address"
        },
        {
          "internalType": "address",
          "name": "to",
          "type": "address"
        },
        {
          "internalType": "uint256",
          "name": "tokenId",
          "type": "uint256"
        }
      ],
      "name": "transferFrom",
      "outputs": [],
      "stateMutability": "nonpayable",
      "type": "function"
    },
    {
      "inputs": [
        {
          "internalType": "address",
          "name": "newOwner",
          "type": "address"
        }
      ],
      "name": "transferOwnership",
      "outputs": [],
      "stateMutability": "nonpayable",
      "type": "function"
    },
    {
      "inputs": [
        {
          "internalType": "uint256",
          "name": "tokenId",
          "type": "uint256"
        },
        {
          "internalType": "uint256",
          "name": "newPrice",
          "type": "uint256"
        }
      ],
      "name": "updateNFTPrice",
      "outputs": [],
      "stateMutability": "nonpayable",
      "type": "function"
    },
    {
      "inputs": [
        {
          "internalType": "uint256",
          "name": "newValue",
          "type": "uint256"
        }
      ],
      "name": "updateRoyaltyPercentage",
      "outputs": [],
      "stateMutability": "nonpayable",
      "type": "function"
    }
  ],
  "bytecode": "0x6080604052600a80553480156200001557600080fd5b5060405162004ba338038062004ba383398181016040528101906200003b9190620002c5565b6040518060400160405280600881526020017f69566965774e46540000000000000000000000000000000000000000000000008152506040518060400160405280600581526020017f49564e46540000000000000000000000000000000000000000000000000000008152508160009081620000b8919062000571565b508060019081620000ca919062000571565b505050620000ed620000e16200018d60201b60201c565b6200019560201b60201c565b6001600960003373ffffffffffffffffffffffffffffffffffffffff1673ffffffffffffffffffffffffffffffffffffffff16815260200190815260200160002060006101000a81548160ff02191690831515021790555080600d60006101000a81548173ffffffffffffffffffffffffffffffffffffffff021916908373ffffffffffffffffffffffffffffffffffffffff1602179055505062000658565b600033905090565b6000600660009054906101000a900473ffffffffffffffffffffffffffffffffffffffff16905081600660006101000a81548173ffffffffffffffffffffffffffffffffffffffff021916908373ffffffffffffffffffffffffffffffffffffffff1602179055508173ffffffffffffffffffffffffffffffffffffffff168173ffffffffffffffffffffffffffffffffffffffff167f8be0079c531659141344cd1fd0a4f28419497f9722a3daafe3b4186f6b6457e060405160405180910390a35050565b600080fd5b600073ffffffffffffffffffffffffffffffffffffffff82169050919050565b60006200028d8262000260565b9050919050565b6200029f8162000280565b8114620002ab57600080fd5b50565b600081519050620002bf8162000294565b92915050565b600060208284031215620002de57620002dd6200025b565b5b6000620002ee84828501620002ae565b91505092915050565b600081519050919050565b7f4e487b7100000000000000000000000000000000000000000000000000000000600052604160045260246000fd5b7f4e487b7100000000000000000000000000000000000000000000000000000000600052602260045260246000fd5b600060028204905060018216806200037957607f821691505b6020821081036200038f576200038e62000331565b5b50919050565b60008190508160005260206000209050919050565b60006020601f8301049050919050565b600082821b905092915050565b600060088302620003f97fffffffffffffffffffffffffffffffffffffffffffffffffffffffffffffffff82620003ba565b620004058683620003ba565b95508019841693508086168417925050509392505050565b6000819050919050565b6000819050919050565b6000620004526200044c62000446846200041d565b62000427565b6200041d565b9050919050565b6000819050919050565b6200046e8362000431565b620004866200047d8262000459565b848454620003c7565b825550505050565b600090565b6200049d6200048e565b620004aa81848462000463565b505050565b5b81811015620004d257620004c660008262000493565b600181019050620004b0565b5050565b601f8211156200052157620004eb8162000395565b620004f684620003aa565b8101602085101562000506578190505b6200051e6200051585620003aa565b830182620004af565b50505b505050565b600082821c905092915050565b6000620005466000198460080262000526565b1980831691505092915050565b600062000561838362000533565b9150826002028217905092915050565b6200057c82620002f7565b67ffffffffffffffff81111562000598576200059762000302565b5b620005a4825462000360565b620005b1828285620004d6565b600060209050601f831160018114620005e95760008415620005d4578287015190505b620005e0858262000553565b86555062000650565b601f198416620005f98662000395565b60005b828110156200062357848901518255600182019150602085019450602081019050620005fc565b868310156200064357848901516200063f601f89168262000533565b8355505b6001600288020188555050505b505050505050565b61453b80620006686000396000f3fe608060405234801561001057600080fd5b50600436106101f05760003560e01c806370a082311161010f578063b88d4fde116100a2578063efdfdc2c11610071578063efdfdc2c146105a1578063f2fde38b146105bf578063f50b0cc8146105db578063fa39307e146105f7576101f0565b8063b88d4fde14610507578063c87b56dd14610523578063e08d610f14610553578063e985e9c514610571576101f0565b806390ba7a32116100de57806390ba7a321461046d578063929761791461049d57806395d89b41146104cd578063a22cb465146104eb576101f0565b806370a082311461040b578063715018a61461043b5780638da5cb5b146104455780638eb2073c14610463576101f0565b806345789511116101875780635afa3a72116101565780635afa3a7214610387578063621bb669146103a35780636352211e146103bf57806365f745bf146103ef576101f0565b806345789511146103015780634ac0123d1461033157806351ed82881461034d57806359c8b7dd14610369576101f0565b806323b872dd116101c357806323b872dd1461028f5780632b481883146102ab57806339454cc0146102c957806342842e0e146102e5576101f0565b806301ffc9a7146101f557806306fdde0314610225578063081812fc14610243578063095ea7b314610273575b600080fd5b61020f600480360381019061020a9190612ba8565b610613565b60405161021c9190612bf0565b60405180910390f35b61022d6106f5565b60405161023a9190612c9b565b60405180910390f35b61025d60048036038101906102589190612cf3565b610787565b60405161026a9190612d61565b60405180910390f35b61028d60048036038101906102889190612da8565b6107cd565b005b6102a960048036038101906102a49190612de8565b6108e4565b005b6102b3610944565b6040516102c09190612bf0565b60405180910390f35b6102e360048036038101906102de9190612cf3565b610998565b005b6102ff60048036038101906102fa9190612de8565b610a48565b005b61031b60048036038101906103169190612cf3565b610a68565b6040516103289190612bf0565b60405180910390f35b61034b60048036038101906103469190612e3b565b610a92565b005b61036760048036038101906103629190612cf3565b610b67565b005b610371610edb565b60405161037e9190612e8a565b60405180910390f35b6103a1600480360381019061039c9190612fda565b610ee5565b005b6103bd60048036038101906103b89190612cf3565b610fc3565b005b6103d960048036038101906103d49190612cf3565b610fd5565b6040516103e69190612d61565b60405180910390f35b61040960048036038101906104049190613036565b61105b565b005b61042560048036038101906104209190613036565b6111c6565b6040516104329190612e8a565b60405180910390f35b61044361127d565b005b61044d611291565b60405161045a9190612d61565b60405180910390f35b61046b6112bb565b005b61048760048036038101906104829190612cf3565b6113a2565b6040516104949190612bf0565b60405180910390f35b6104b760048036038101906104b29190612cf3565b6113c2565b6040516104c49190612e8a565b60405180910390f35b6104d56113df565b6040516104e29190612c9b565b60405180910390f35b6105056004803603810190610500919061308f565b611471565b005b610521600480360381019061051c9190613170565b611487565b005b61053d60048036038101906105389190612cf3565b6114e9565b60405161054a9190612c9b565b60405180910390f35b61055b6114fb565b6040516105689190612e8a565b60405180910390f35b61058b600480360381019061058691906131f3565b6115a0565b6040516105989190612bf0565b60405180910390f35b6105a9611634565b6040516105b69190612e8a565b60405180910390f35b6105d960048036038101906105d49190613036565b6116df565b005b6105f560048036038101906105f09190613036565b611762565b005b610611600480360381019061060c9190612cf3565b6118cd565b005b60007f80ac58cd000000000000000000000000000000000000000000000000000000007bffffffffffffffffffffffffffffffffffffffffffffffffffffffff1916827bffffffffffffffffffffffffffffffffffffffffffffffffffffffff191614806106de57507f5b5e139f000000000000000000000000000000000000000000000000000000007bffffffffffffffffffffffffffffffffffffffffffffffffffffffff1916827bffffffffffffffffffffffffffffffffffffffffffffffffffffffff1916145b806106ee57506106ed8261197c565b5b9050919050565b60606000805461070490613262565b80601f016020809104026020016040519081016040528092919081815260200182805461073090613262565b801561077d5780601f106107525761010080835404028352916020019161077d565b820191906000526020600020905b81548152906001019060200180831161076057829003601f168201915b5050505050905090565b6000610792826119e6565b6004600083815260200190815260200160002060009054906101000a900473ffffffffffffffffffffffffffffffffffffffff169050919050565b60006107d882610fd5565b90508073ffffffffffffffffffffffffffffffffffffffff168373ffffffffffffffffffffffffffffffffffffffff1603610848576040517f08c379a000000000000000000000000000000000000000000000000000000000815260040161083f90613305565b60405180910390fd5b8073ffffffffffffffffffffffffffffffffffffffff16610867611a31565b73ffffffffffffffffffffffffffffffffffffffff161480610896575061089581610890611a31565b6115a0565b5b6108d5576040517f08c379a00000000000000000000000000000000000000000000000000000000081526004016108cc90613397565b60405180910390fd5b6108df8383611a39565b505050565b6108f56108ef611a31565b82611af2565b610934576040517f08c379a000000000000000000000000000000000000000000000000000000000815260040161092b90613429565b60405180910390fd5b61093f838383611b87565b505050565b6000600960003373ffffffffffffffffffffffffffffffffffffffff1673ffffffffffffffffffffffffffffffffffffffff16815260200190815260200160002060009054906101000a900460ff16905090565b6109a181610fd5565b73ffffffffffffffffffffffffffffffffffffffff163373ffffffffffffffffffffffffffffffffffffffff1614610a0e576040517f08c379a0000000000000000000000000000000000000000000000000000000008152600401610a05906134bb565b60405180910390fd5b610a196000826107cd565b6000600c600083815260200190815260200160002060006101000a81548160ff02191690831515021790555050565b610a6383838360405180602001604052806000815250611487565b505050565b6000600c600083815260200190815260200160002060009054906101000a900460ff169050919050565b60008111610ad5576040517f08c379a0000000000000000000000000000000000000000000000000000000008152600401610acc90613527565b60405180910390fd5b610ade82610fd5565b73ffffffffffffffffffffffffffffffffffffffff163373ffffffffffffffffffffffffffffffffffffffff1614610b4b576040517f08c379a0000000000000000000000000000000000000000000000000000000008152600401610b42906134bb565b60405180910390fd5b80600b6000848152602001908152602001600020819055505050565b610b6f6114fb565b600b6000838152602001908152602001600020541115610bc4576040517f08c379a0000000000000000000000000000000000000000000000000000000008152600401610bbb906135b9565b60405180910390fd5b600d60009054906101000a900473ffffffffffffffffffffffffffffffffffffffff1673ffffffffffffffffffffffffffffffffffffffff166370a08231336040518263ffffffff1660e01b8152600401610c1f9190612d61565b602060405180830381865afa158015610c3c573d6000803e3d6000fd5b505050506040513d601f19601f82011682018060405250810190610c6091906135ee565b600b6000838152602001908152602001600020541115610cb5576040517f08c379a0000000000000000000000000000000000000000000000000000000008152600401610cac90613667565b60405180910390fd5b6000610cc082610fd5565b90506000600b600084815260200190815260200160002054905060006064600a5483610cec91906136b6565b610cf69190613727565b905060008183610d069190613758565b9050600d60009054906101000a900473ffffffffffffffffffffffffffffffffffffffff1673ffffffffffffffffffffffffffffffffffffffff166323b872dd3330600b60008a8152602001908152602001600020546040518463ffffffff1660e01b8152600401610d7a9392919061378c565b6020604051808303816000875af1158015610d99573d6000803e3d6000fd5b505050506040513d601f19601f82011682018060405250810190610dbd91906137d8565b50600d60009054906101000a900473ffffffffffffffffffffffffffffffffffffffff1673ffffffffffffffffffffffffffffffffffffffff1663a9059cbb85836040518363ffffffff1660e01b8152600401610e1b929190613805565b6020604051808303816000875af1158015610e3a573d6000803e3d6000fd5b505050506040513d601f19601f82011682018060405250810190610e5e91906137d8565b50610e6a843387611b87565b6000600c600087815260200190815260200160002060006101000a81548160ff021916908315150217905550847f5fafad85dec201c2e73b6a2bef6351129304a624ea8720ecd04cd7f04d83bc3985338587604051610ecc949392919061382e565b60405180910390a25050505050565b6000600a54905090565b600960003373ffffffffffffffffffffffffffffffffffffffff1673ffffffffffffffffffffffffffffffffffffffff16815260200190815260200160002060009054906101000a900460ff16610f71576040517f08c379a0000000000000000000000000000000000000000000000000000000008152600401610f68906138e5565b60405180910390fd5b60008111610fb4576040517f08c379a0000000000000000000000000000000000000000000000000000000008152600401610fab90613527565b60405180910390fd5b610fbf338383611e80565b5050565b610fcb611f23565b80600a8190555050565b600080610fe183611fa1565b9050600073ffffffffffffffffffffffffffffffffffffffff168173ffffffffffffffffffffffffffffffffffffffff1603611052576040517f08c379a000000000000000000000000000000000000000000000000000000000815260040161104990613951565b60405180910390fd5b80915050919050565b611063611f23565b61106b611291565b73ffffffffffffffffffffffffffffffffffffffff168173ffffffffffffffffffffffffffffffffffffffff16036110d8576040517f08c379a00000000000000000000000000000000000000000000000000000000081526004016110cf906139bd565b60405180910390fd5b60011515600960008373ffffffffffffffffffffffffffffffffffffffff1673ffffffffffffffffffffffffffffffffffffffff16815260200190815260200160002060009054906101000a900460ff1615151461116b576040517f08c379a000000000000000000000000000000000000000000000000000000000815260040161116290613a29565b60405180910390fd5b6001600960008373ffffffffffffffffffffffffffffffffffffffff1673ffffffffffffffffffffffffffffffffffffffff16815260200190815260200160002060006101000a81548160ff02191690831515021790555050565b60008073ffffffffffffffffffffffffffffffffffffffff168273ffffffffffffffffffffffffffffffffffffffff1603611236576040517f08c379a000000000000000000000000000000000000000000000000000000000815260040161122d90613abb565b60405180910390fd5b600360008373ffffffffffffffffffffffffffffffffffffffff1673ffffffffffffffffffffffffffffffffffffffff168152602001908152602001600020549050919050565b611285611f23565b61128f6000611fde565b565b6000600660009054906101000a900473ffffffffffffffffffffffffffffffffffffffff16905090565b600960003373ffffffffffffffffffffffffffffffffffffffff1673ffffffffffffffffffffffffffffffffffffffff16815260200190815260200160002060009054906101000a900460ff1615611348576040517f08c379a000000000000000000000000000000000000000000000000000000000815260040161133f90613b73565b60405180910390fd5b6000600960003373ffffffffffffffffffffffffffffffffffffffff1673ffffffffffffffffffffffffffffffffffffffff16815260200190815260200160002060006101000a81548160ff021916908315150217905550565b600c6020528060005260406000206000915054906101000a900460ff1681565b6000600b6000838152602001908152602001600020549050919050565b6060600180546113ee90613262565b80601f016020809104026020016040519081016040528092919081815260200182805461141a90613262565b80156114675780601f1061143c57610100808354040283529160200191611467565b820191906000526020600020905b81548152906001019060200180831161144a57829003601f168201915b5050505050905090565b61148361147c611a31565b83836120a4565b5050565b611498611492611a31565b83611af2565b6114d7576040517f08c379a00000000000000000000000000000000000000000000000000000000081526004016114ce90613429565b60405180910390fd5b6114e384848484612210565b50505050565b60606114f48261226c565b9050919050565b6000600d60009054906101000a900473ffffffffffffffffffffffffffffffffffffffff1673ffffffffffffffffffffffffffffffffffffffff1663dd62ed3e33306040518363ffffffff1660e01b815260040161155a929190613b93565b602060405180830381865afa158015611577573d6000803e3d6000fd5b505050506040513d601f19601f8201168201806040525081019061159b91906135ee565b905090565b6000600560008473ffffffffffffffffffffffffffffffffffffffff1673ffffffffffffffffffffffffffffffffffffffff16815260200190815260200160002060008373ffffffffffffffffffffffffffffffffffffffff1673ffffffffffffffffffffffffffffffffffffffff16815260200190815260200160002060009054906101000a900460ff16905092915050565b600061163e611f23565b600d60009054906101000a900473ffffffffffffffffffffffffffffffffffffffff1673ffffffffffffffffffffffffffffffffffffffff166370a08231306040518263ffffffff1660e01b81526004016116999190612d61565b602060405180830381865afa1580156116b6573d6000803e3d6000fd5b505050506040513d601f19601f820116820180604052508101906116da91906135ee565b905090565b6116e7611f23565b600073ffffffffffffffffffffffffffffffffffffffff168173ffffffffffffffffffffffffffffffffffffffff1603611756576040517f08c379a000000000000000000000000000000000000000000000000000000000815260040161174d90613c2e565b60405180910390fd5b61175f81611fde565b50565b61176a611f23565b611772611291565b73ffffffffffffffffffffffffffffffffffffffff168173ffffffffffffffffffffffffffffffffffffffff16036117df576040517f08c379a00000000000000000000000000000000000000000000000000000000081526004016117d690613cc0565b60405180910390fd5b60001515600960008373ffffffffffffffffffffffffffffffffffffffff1673ffffffffffffffffffffffffffffffffffffffff16815260200190815260200160002060009054906101000a900460ff16151514611872576040517f08c379a000000000000000000000000000000000000000000000000000000000815260040161186990613d2c565b60405180910390fd5b6000600960008373ffffffffffffffffffffffffffffffffffffffff1673ffffffffffffffffffffffffffffffffffffffff16815260200190815260200160002060006101000a81548160ff02191690831515021790555050565b6118d681610fd5565b73ffffffffffffffffffffffffffffffffffffffff163373ffffffffffffffffffffffffffffffffffffffff1614611943576040517f08c379a000000000000000000000000000000000000000000000000000000000815260040161193a906134bb565b60405180910390fd5b61194d30826107cd565b6001600c600083815260200190815260200160002060006101000a81548160ff02191690831515021790555050565b60007f01ffc9a7000000000000000000000000000000000000000000000000000000007bffffffffffffffffffffffffffffffffffffffffffffffffffffffff1916827bffffffffffffffffffffffffffffffffffffffffffffffffffffffff1916149050919050565b6119ef8161237e565b611a2e576040517f08c379a0000000000000000000000000000000000000000000000000000000008152600401611a2590613951565b60405180910390fd5b50565b600033905090565b816004600083815260200190815260200160002060006101000a81548173ffffffffffffffffffffffffffffffffffffffff021916908373ffffffffffffffffffffffffffffffffffffffff160217905550808273ffffffffffffffffffffffffffffffffffffffff16611aac83610fd5565b73ffffffffffffffffffffffffffffffffffffffff167f8c5be1e5ebec7d5bd14f71427d1e84f3dd0314c0f7b2291e5b200ac8c7c3b92560405160405180910390a45050565b600080611afe83610fd5565b90508073ffffffffffffffffffffffffffffffffffffffff168473ffffffffffffffffffffffffffffffffffffffff161480611b405750611b3f81856115a0565b5b80611b7e57508373ffffffffffffffffffffffffffffffffffffffff16611b6684610787565b73ffffffffffffffffffffffffffffffffffffffff16145b91505092915050565b8273ffffffffffffffffffffffffffffffffffffffff16611ba782610fd5565b73ffffffffffffffffffffffffffffffffffffffff1614611bfd576040517f08c379a0000000000000000000000000000000000000000000000000000000008152600401611bf490613dbe565b60405180910390fd5b600073ffffffffffffffffffffffffffffffffffffffff168273ffffffffffffffffffffffffffffffffffffffff1603611c6c576040517f08c379a0000000000000000000000000000000000000000000000000000000008152600401611c6390613e50565b60405180910390fd5b611c7983838360016123bf565b8273ffffffffffffffffffffffffffffffffffffffff16611c9982610fd5565b73ffffffffffffffffffffffffffffffffffffffff1614611cef576040517f08c379a0000000000000000000000000000000000000000000000000000000008152600401611ce690613dbe565b60405180910390fd5b6004600082815260200190815260200160002060006101000a81549073ffffffffffffffffffffffffffffffffffffffff02191690556001600360008573ffffffffffffffffffffffffffffffffffffffff1673ffffffffffffffffffffffffffffffffffffffff168152602001908152602001600020600082825403925050819055506001600360008473ffffffffffffffffffffffffffffffffffffffff1673ffffffffffffffffffffffffffffffffffffffff16815260200190815260200160002060008282540192505081905550816002600083815260200190815260200160002060006101000a81548173ffffffffffffffffffffffffffffffffffffffff021916908373ffffffffffffffffffffffffffffffffffffffff160217905550808273ffffffffffffffffffffffffffffffffffffffff168473ffffffffffffffffffffffffffffffffffffffff167fddf252ad1be2c89b69c2b068fc378daa952ba7f163c4a11628f55a4df523b3ef60405160405180910390a4611e7b83838360016123c5565b505050565b6000611e8c60086123cb565b9050611e9860086123d9565b611ea284826123ef565b611eac818461240d565b81600b6000838152602001908152602001600020819055506000600c600083815260200190815260200160002060006101000a81548160ff021916908315150217905550807fd9dc24857f317ed9abbbb42e920ede0104231eb1d3d70236a74887ffaf15986860405160405180910390a250505050565b611f2b611a31565b73ffffffffffffffffffffffffffffffffffffffff16611f49611291565b73ffffffffffffffffffffffffffffffffffffffff1614611f9f576040517f08c379a0000000000000000000000000000000000000000000000000000000008152600401611f9690613ebc565b60405180910390fd5b565b60006002600083815260200190815260200160002060009054906101000a900473ffffffffffffffffffffffffffffffffffffffff169050919050565b6000600660009054906101000a900473ffffffffffffffffffffffffffffffffffffffff16905081600660006101000a81548173ffffffffffffffffffffffffffffffffffffffff021916908373ffffffffffffffffffffffffffffffffffffffff1602179055508173ffffffffffffffffffffffffffffffffffffffff168173ffffffffffffffffffffffffffffffffffffffff167f8be0079c531659141344cd1fd0a4f28419497f9722a3daafe3b4186f6b6457e060405160405180910390a35050565b8173ffffffffffffffffffffffffffffffffffffffff168373ffffffffffffffffffffffffffffffffffffffff1603612112576040517f08c379a000000000000000000000000000000000000000000000000000000000815260040161210990613f28565b60405180910390fd5b80600560008573ffffffffffffffffffffffffffffffffffffffff1673ffffffffffffffffffffffffffffffffffffffff16815260200190815260200160002060008473ffffffffffffffffffffffffffffffffffffffff1673ffffffffffffffffffffffffffffffffffffffff16815260200190815260200160002060006101000a81548160ff0219169083151502179055508173ffffffffffffffffffffffffffffffffffffffff168373ffffffffffffffffffffffffffffffffffffffff167f17307eab39ab6107e8899845ad3d59bd9653f200f220920489ca2b5937696c31836040516122039190612bf0565b60405180910390a3505050565b61221b848484611b87565b6122278484848461247a565b612266576040517f08c379a000000000000000000000000000000000000000000000000000000000815260040161225d90613fba565b60405180910390fd5b50505050565b6060612277826119e6565b600060076000848152602001908152602001600020805461229790613262565b80601f01602080910402602001604051908101604052809291908181526020018280546122c390613262565b80156123105780601f106122e557610100808354040283529160200191612310565b820191906000526020600020905b8154815290600101906020018083116122f357829003601f168201915b505050505090506000612321612601565b90506000815103612336578192505050612379565b60008251111561236b578082604051602001612353929190614016565b60405160208183030381529060405292505050612379565b61237484612618565b925050505b919050565b60008073ffffffffffffffffffffffffffffffffffffffff166123a083611fa1565b73ffffffffffffffffffffffffffffffffffffffff1614159050919050565b50505050565b50505050565b600081600001549050919050565b6001816000016000828254019250508190555050565b612409828260405180602001604052806000815250612680565b5050565b6124168261237e565b612455576040517f08c379a000000000000000000000000000000000000000000000000000000000815260040161244c906140ac565b60405180910390fd5b806007600084815260200190815260200160002090816124759190614278565b505050565b600061249b8473ffffffffffffffffffffffffffffffffffffffff166126db565b156125f4578373ffffffffffffffffffffffffffffffffffffffff1663150b7a026124c4611a31565b8786866040518563ffffffff1660e01b81526004016124e6949392919061439f565b6020604051808303816000875af192505050801561252257506040513d601f19601f8201168201806040525081019061251f9190614400565b60015b6125a4573d8060008114612552576040519150601f19603f3d011682016040523d82523d6000602084013e612557565b606091505b50600081510361259c576040517f08c379a000000000000000000000000000000000000000000000000000000000815260040161259390613fba565b60405180910390fd5b805181602001fd5b63150b7a0260e01b7bffffffffffffffffffffffffffffffffffffffffffffffffffffffff1916817bffffffffffffffffffffffffffffffffffffffffffffffffffffffff1916149150506125f9565b600190505b949350505050565b606060405180602001604052806000815250905090565b6060612623826119e6565b600061262d612601565b9050600081511161264d5760405180602001604052806000815250612678565b80612657846126fe565b604051602001612668929190614016565b6040516020818303038152906040525b915050919050565b61268a83836127cc565b612697600084848461247a565b6126d6576040517f08c379a00000000000000000000000000000000000000000000000000000000081526004016126cd90613fba565b60405180910390fd5b505050565b6000808273ffffffffffffffffffffffffffffffffffffffff163b119050919050565b60606000600161270d846129e9565b01905060008167ffffffffffffffff81111561272c5761272b612eaf565b5b6040519080825280601f01601f19166020018201604052801561275e5781602001600182028036833780820191505090505b509050600082602001820190505b6001156127c1578080600190039150507f3031323334353637383961626364656600000000000000000000000000000000600a86061a8153600a85816127b5576127b46136f8565b5b0494506000850361276c575b819350505050919050565b600073ffffffffffffffffffffffffffffffffffffffff168273ffffffffffffffffffffffffffffffffffffffff160361283b576040517f08c379a000000000000000000000000000000000000000000000000000000000815260040161283290614479565b60405180910390fd5b6128448161237e565b15612884576040517f08c379a000000000000000000000000000000000000000000000000000000000815260040161287b906144e5565b60405180910390fd5b6128926000838360016123bf565b61289b8161237e565b156128db576040517f08c379a00000000000000000000000000000000000000000000000000000000081526004016128d2906144e5565b60405180910390fd5b6001600360008473ffffffffffffffffffffffffffffffffffffffff1673ffffffffffffffffffffffffffffffffffffffff16815260200190815260200160002060008282540192505081905550816002600083815260200190815260200160002060006101000a81548173ffffffffffffffffffffffffffffffffffffffff021916908373ffffffffffffffffffffffffffffffffffffffff160217905550808273ffffffffffffffffffffffffffffffffffffffff16600073ffffffffffffffffffffffffffffffffffffffff167fddf252ad1be2c89b69c2b068fc378daa952ba7f163c4a11628f55a4df523b3ef60405160405180910390a46129e56000838360016123c5565b5050565b600080600090507a184f03e93ff9f4daa797ed6e38ed64bf6a1f0100000000000000008310612a47577a184f03e93ff9f4daa797ed6e38ed64bf6a1f0100000000000000008381612a3d57612a3c6136f8565b5b0492506040810190505b6d04ee2d6d415b85acef81000000008310612a84576d04ee2d6d415b85acef81000000008381612a7a57612a796136f8565b5b0492506020810190505b662386f26fc100008310612ab357662386f26fc100008381612aa957612aa86136f8565b5b0492506010810190505b6305f5e1008310612adc576305f5e1008381612ad257612ad16136f8565b5b0492506008810190505b6127108310612b01576127108381612af757612af66136f8565b5b0492506004810190505b60648310612b245760648381612b1a57612b196136f8565b5b0492506002810190505b600a8310612b33576001810190505b80915050919050565b6000604051905090565b600080fd5b600080fd5b60007fffffffff0000000000000000000000000000000000000000000000000000000082169050919050565b612b8581612b50565b8114612b9057600080fd5b50565b600081359050612ba281612b7c565b92915050565b600060208284031215612bbe57612bbd612b46565b5b6000612bcc84828501612b93565b91505092915050565b60008115159050919050565b612bea81612bd5565b82525050565b6000602082019050612c056000830184612be1565b92915050565b600081519050919050565b600082825260208201905092915050565b60005b83811015612c45578082015181840152602081019050612c2a565b60008484015250505050565b6000601f19601f8301169050919050565b6000612c6d82612c0b565b612c778185612c16565b9350612c87818560208601612c27565b612c9081612c51565b840191505092915050565b60006020820190508181036000830152612cb58184612c62565b905092915050565b6000819050919050565b612cd081612cbd565b8114612cdb57600080fd5b50565b600081359050612ced81612cc7565b92915050565b600060208284031215612d0957612d08612b46565b5b6000612d1784828501612cde565b91505092915050565b600073ffffffffffffffffffffffffffffffffffffffff82169050919050565b6000612d4b82612d20565b9050919050565b612d5b81612d40565b82525050565b6000602082019050612d766000830184612d52565b92915050565b612d8581612d40565b8114612d9057600080fd5b50565b600081359050612da281612d7c565b92915050565b60008060408385031215612dbf57612dbe612b46565b5b6000612dcd85828601612d93565b9250506020612dde85828601612cde565b9150509250929050565b600080600060608486031215612e0157612e00612b46565b5b6000612e0f86828701612d93565b9350506020612e2086828701612d93565b9250506040612e3186828701612cde565b9150509250925092565b60008060408385031215612e5257612e51612b46565b5b6000612e6085828601612cde565b9250506020612e7185828601612cde565b9150509250929050565b612e8481612cbd565b82525050565b6000602082019050612e9f6000830184612e7b565b92915050565b600080fd5b600080fd5b7f4e487b7100000000000000000000000000000000000000000000000000000000600052604160045260246000fd5b612ee782612c51565b810181811067ffffffffffffffff82111715612f0657612f05612eaf565b5b80604052505050565b6000612f19612b3c565b9050612f258282612ede565b919050565b600067ffffffffffffffff821115612f4557612f44612eaf565b5b612f4e82612c51565b9050602081019050919050565b82818337600083830152505050565b6000612f7d612f7884612f2a565b612f0f565b905082815260208101848484011115612f9957612f98612eaa565b5b612fa4848285612f5b565b509392505050565b600082601f830112612fc157612fc0612ea5565b5b8135612fd1848260208601612f6a565b91505092915050565b60008060408385031215612ff157612ff0612b46565b5b600083013567ffffffffffffffff81111561300f5761300e612b4b565b5b61301b85828601612fac565b925050602061302c85828601612cde565b9150509250929050565b60006020828403121561304c5761304b612b46565b5b600061305a84828501612d93565b91505092915050565b61306c81612bd5565b811461307757600080fd5b50565b60008135905061308981613063565b92915050565b600080604083850312156130a6576130a5612b46565b5b60006130b485828601612d93565b92505060206130c58582860161307a565b9150509250929050565b600067ffffffffffffffff8211156130ea576130e9612eaf565b5b6130f382612c51565b9050602081019050919050565b600061311361310e846130cf565b612f0f565b90508281526020810184848401111561312f5761312e612eaa565b5b61313a848285612f5b565b509392505050565b600082601f83011261315757613156612ea5565b5b8135613167848260208601613100565b91505092915050565b6000806000806080858703121561318a57613189612b46565b5b600061319887828801612d93565b94505060206131a987828801612d93565b93505060406131ba87828801612cde565b925050606085013567ffffffffffffffff8111156131db576131da612b4b565b5b6131e787828801613142565b91505092959194509250565b6000806040838503121561320a57613209612b46565b5b600061321885828601612d93565b925050602061322985828601612d93565b9150509250929050565b7f4e487b7100000000000000000000000000000000000000000000000000000000600052602260045260246000fd5b6000600282049050600182168061327a57607f821691505b60208210810361328d5761328c613233565b5b50919050565b7f4552433732313a20617070726f76616c20746f2063757272656e74206f776e6560008201527f7200000000000000000000000000000000000000000000000000000000000000602082015250565b60006132ef602183612c16565b91506132fa82613293565b604082019050919050565b6000602082019050818103600083015261331e816132e2565b9050919050565b7f4552433732313a20617070726f76652063616c6c6572206973206e6f7420746f60008201527f6b656e206f776e6572206f7220617070726f76656420666f7220616c6c000000602082015250565b6000613381603d83612c16565b915061338c82613325565b604082019050919050565b600060208201905081810360008301526133b081613374565b9050919050565b7f4552433732313a2063616c6c6572206973206e6f7420746f6b656e206f776e6560008201527f72206f7220617070726f76656400000000000000000000000000000000000000602082015250565b6000613413602d83612c16565b915061341e826133b7565b604082019050919050565b6000602082019050818103600083015261344281613406565b9050919050565b7f4f6e6c79206f6e776572206f6620746865204e46542063616e2075706461746560008201527f207468652070726963652e000000000000000000000000000000000000000000602082015250565b60006134a5602b83612c16565b91506134b082613449565b604082019050919050565b600060208201905081810360008301526134d481613498565b9050919050565b7f416d6f756e74206d75737420626520677261746572207468616e20302e000000600082015250565b6000613511601d83612c16565b915061351c826134db565b602082019050919050565b6000602082019050818103600083015261354081613504565b9050919050565b7f506c6561736520617070726f766520636f696e206265666f7265207472616e7360008201527f66657272696e672e000000000000000000000000000000000000000000000000602082015250565b60006135a3602883612c16565b91506135ae82613547565b604082019050919050565b600060208201905081810360008301526135d281613596565b9050919050565b6000815190506135e881612cc7565b92915050565b60006020828403121561360457613603612b46565b5b6000613612848285016135d9565b91505092915050565b7f5573657220646f65736e2774206861766520656e6f75676820636f696e2e0000600082015250565b6000613651601e83612c16565b915061365c8261361b565b602082019050919050565b6000602082019050818103600083015261368081613644565b9050919050565b7f4e487b7100000000000000000000000000000000000000000000000000000000600052601160045260246000fd5b60006136c182612cbd565b91506136cc83612cbd565b92508282026136da81612cbd565b915082820484148315176136f1576136f0613687565b5b5092915050565b7f4e487b7100000000000000000000000000000000000000000000000000000000600052601260045260246000fd5b600061373282612cbd565b915061373d83612cbd565b92508261374d5761374c6136f8565b5b828204905092915050565b600061376382612cbd565b915061376e83612cbd565b925082820390508181111561378657613785613687565b5b92915050565b60006060820190506137a16000830186612d52565b6137ae6020830185612d52565b6137bb6040830184612e7b565b949350505050565b6000815190506137d281613063565b92915050565b6000602082840312156137ee576137ed612b46565b5b60006137fc848285016137c3565b91505092915050565b600060408201905061381a6000830185612d52565b6138276020830184612e7b565b9392505050565b60006080820190506138436000830187612d52565b6138506020830186612d52565b61385d6040830185612e7b565b61386a6060830184612e7b565b95945050505050565b7f596f7520646f6e27742068617665207065726d697373696f6e20746f2063726560008201527f617465206e6577204e46542e0000000000000000000000000000000000000000602082015250565b60006138cf602c83612c16565b91506138da82613873565b604082019050919050565b600060208201905081810360008301526138fe816138c2565b9050919050565b7f4552433732313a20696e76616c696420746f6b656e2049440000000000000000600082015250565b600061393b601883612c16565b915061394682613905565b602082019050919050565b6000602082019050818103600083015261396a8161392e565b9050919050565b7f596f7520616c726561647920616c6c6f7765642e000000000000000000000000600082015250565b60006139a7601483612c16565b91506139b282613971565b602082019050919050565b600060208201905081810360008301526139d68161399a565b9050919050565b7f416c726561647920616c6c6f77656420666f72207468697320757365722e0000600082015250565b6000613a13601e83612c16565b9150613a1e826139dd565b602082019050919050565b60006020820190508181036000830152613a4281613a06565b9050919050565b7f4552433732313a2061646472657373207a65726f206973206e6f74206120766160008201527f6c6964206f776e65720000000000000000000000000000000000000000000000602082015250565b6000613aa5602983612c16565b9150613ab082613a49565b604082019050919050565b60006020820190508181036000830152613ad481613a98565b9050919050565b7f596f7520616c72656164792072657175657374656420666f72206d696e69746960008201527f6e67206170706c69636174696f6e2e20436f6e74616374206f776e657220746f60208201527f20616c6c6f772e00000000000000000000000000000000000000000000000000604082015250565b6000613b5d604783612c16565b9150613b6882613adb565b606082019050919050565b60006020820190508181036000830152613b8c81613b50565b9050919050565b6000604082019050613ba86000830185612d52565b613bb56020830184612d52565b9392505050565b7f4f776e61626c653a206e6577206f776e657220697320746865207a65726f206160008201527f6464726573730000000000000000000000000000000000000000000000000000602082015250565b6000613c18602683612c16565b9150613c2382613bbc565b604082019050919050565b60006020820190508181036000830152613c4781613c0b565b9050919050565b7f596f752063616e206e6f74206465636c696e6520796f757273656c6620666f7260008201527f206372656174696e67204e46542e000000000000000000000000000000000000602082015250565b6000613caa602e83612c16565b9150613cb582613c4e565b604082019050919050565b60006020820190508181036000830152613cd981613c9d565b9050919050565b7f416c7265616479206465636c696e656420666f72207468697320757365722e00600082015250565b6000613d16601f83612c16565b9150613d2182613ce0565b602082019050919050565b60006020820190508181036000830152613d4581613d09565b9050919050565b7f4552433732313a207472616e736665722066726f6d20696e636f72726563742060008201527f6f776e6572000000000000000000000000000000000000000000000000000000602082015250565b6000613da8602583612c16565b9150613db382613d4c565b604082019050919050565b60006020820190508181036000830152613dd781613d9b565b9050919050565b7f4552433732313a207472616e7366657220746f20746865207a65726f2061646460008201527f7265737300000000000000000000000000000000000000000000000000000000602082015250565b6000613e3a602483612c16565b9150613e4582613dde565b604082019050919050565b60006020820190508181036000830152613e6981613e2d565b9050919050565b7f4f776e61626c653a2063616c6c6572206973206e6f7420746865206f776e6572600082015250565b6000613ea6602083612c16565b9150613eb182613e70565b602082019050919050565b60006020820190508181036000830152613ed581613e99565b9050919050565b7f4552433732313a20617070726f766520746f2063616c6c657200000000000000600082015250565b6000613f12601983612c16565b9150613f1d82613edc565b602082019050919050565b60006020820190508181036000830152613f4181613f05565b9050919050565b7f4552433732313a207472616e7366657220746f206e6f6e20455243373231526560008201527f63656976657220696d706c656d656e7465720000000000000000000000000000602082015250565b6000613fa4603283612c16565b9150613faf82613f48565b604082019050919050565b60006020820190508181036000830152613fd381613f97565b9050919050565b600081905092915050565b6000613ff082612c0b565b613ffa8185613fda565b935061400a818560208601612c27565b80840191505092915050565b60006140228285613fe5565b915061402e8284613fe5565b91508190509392505050565b7f45524337323155524953746f726167653a2055524920736574206f66206e6f6e60008201527f6578697374656e7420746f6b656e000000000000000000000000000000000000602082015250565b6000614096602e83612c16565b91506140a18261403a565b604082019050919050565b600060208201905081810360008301526140c581614089565b9050919050565b60008190508160005260206000209050919050565b60006020601f8301049050919050565b600082821b905092915050565b60006008830261412e7fffffffffffffffffffffffffffffffffffffffffffffffffffffffffffffffff826140f1565b61413886836140f1565b95508019841693508086168417925050509392505050565b6000819050919050565b600061417561417061416b84612cbd565b614150565b612cbd565b9050919050565b6000819050919050565b61418f8361415a565b6141a361419b8261417c565b8484546140fe565b825550505050565b600090565b6141b86141ab565b6141c3818484614186565b505050565b5b818110156141e7576141dc6000826141b0565b6001810190506141c9565b5050565b601f82111561422c576141fd816140cc565b614206846140e1565b81016020851015614215578190505b614229614221856140e1565b8301826141c8565b50505b505050565b600082821c905092915050565b600061424f60001984600802614231565b1980831691505092915050565b6000614268838361423e565b9150826002028217905092915050565b61428182612c0b565b67ffffffffffffffff81111561429a57614299612eaf565b5b6142a48254613262565b6142af8282856141eb565b600060209050601f8311600181146142e257600084156142d0578287015190505b6142da858261425c565b865550614342565b601f1984166142f0866140cc565b60005b82811015614318578489015182556001820191506020850194506020810190506142f3565b868310156143355784890151614331601f89168261423e565b8355505b6001600288020188555050505b505050505050565b600081519050919050565b600082825260208201905092915050565b60006143718261434a565b61437b8185614355565b935061438b818560208601612c27565b61439481612c51565b840191505092915050565b60006080820190506143b46000830187612d52565b6143c16020830186612d52565b6143ce6040830185612e7b565b81810360608301526143e08184614366565b905095945050505050565b6000815190506143fa81612b7c565b92915050565b60006020828403121561441657614415612b46565b5b6000614424848285016143eb565b91505092915050565b7f4552433732313a206d696e7420746f20746865207a65726f2061646472657373600082015250565b6000614463602083612c16565b915061446e8261442d565b602082019050919050565b6000602082019050818103600083015261449281614456565b9050919050565b7f4552433732313a20746f6b656e20616c7265616479206d696e74656400000000600082015250565b60006144cf601c83612c16565b91506144da82614499565b602082019050919050565b600060208201905081810360008301526144fe816144c2565b905091905056fea26469706673582212204e6e498f77fccd0d381cfe874f412fb3eb1e7a43f21922965c0f33aefd24808764736f6c63430008120033",
  "linkReferences": {},
  "deployedLinkReferences": {}
}